S01100006164635265616465722E7372656398
S11300000C9434000C9451000C9451000C94510045
S11300100C9451000C9451000C9451000C94510018
S11300200C9451000C9451000C9451000C94510008
S11300300C9451000C9451000C9451000C945100F8
S11300400C94BD010C9451000C9451000C9451007B
S11300500C945B010C947B010C9451000C945100A2
S11300600C9451000C94510011241FBECFEFD8E022
S1130070DEBFCDBF11E0A0E0B1E0E8EDFCE002C0DE
S113008005900D92AA32B107D9F721E0AAE2B1E0B6
S113009001C01D92AF39B207E1F70E949B000C9496
S11300A06A060C94000083E480937C008FEE8093B6
S11300B07A0010927B00089588E58093C10080E166
S11300C090E09093C5008093C400089580E284B9C1
S11300D085B9089510927D0110927C0185E085BD5B
S11300E014BC8DE386BD81E080936E00089521E009
S11300F020932C01E6E3F1E02DE0208322E020931D
S11301002D012AE02183FC012081222379F0DC01E6
S1130110E0912D0181E08E0F80932D018D91F0E00F
S1130120EA5CFE4F80838C918111F2CF809136017D
S11301308093C60008950E9453000E945C000E94B0
S113014066000E946A007894CCE7D1E00F2EF5E0B7
S1130150EF2EF12CF02D6894552455F800EC10E0A6
S11301600F2EF6ECAF2EB12CF02D0F2EF0E18F2ECA
S1130170F1E09F2EF02D0F2EFEE7CF2EF1E0DF2EC3
S1130180F02D0F2EF0E06F2EF1E07F2EF02D8091F8
S11301909D0190919E01892B39F110929E0110923C
S11301A09D01E8E6F1E080E090E041915191619198
S11301B07191840F951FEC17FD07B9F7B7010E94E1
S11301C05803CB01770FAA0BBB0B8093320190939A
S11301D03301A0933401B09335010497A105B1050F
S11301E010F055B801C015B8F801808188237CF659
S11301F0F501808180939C01863539F118F48134AE
S113020031F0C5CF813619F08637F9F0C0CF80912F
S113021035018F93809134018F93809133018F93B3
S1130220809132018F937F926F92DF92CF920E94DE
S11302308003C6010E9477008DB79EB708960FB65B
S1130240F8949EBF0FBE8DBFA2CF60913201709112
S1130250330180913401909135010E945D0220E0C8
S113026030E040E85AE30E94C30220E030E44CE965
S113027055E40E94C3020E942E0260932E017093E3
S11302802F0180933001909331019F938F937F933B
S11302906F939F928F92DF92CF920E948003C60148
S11302A00E947700EDB7FEB738960FB6F894FEBFFC
S11302B00FBEEDBF6CCF1F920F920FB60F92112499
S11302C08F93EF93FF93E0912C0180912D018E1772
S11302D051F081E08E0F80932C01F0E0EA5CFE4F38
S11302E080818093C600FF91EF918F910F900FBE94
S11302F00F901F9018951F920F920FB60F92112412
S11303004F935F936F937F938F939F93EF93FF9399
S113031081E090E090939E0180939D0180912A0159
S113032090912B0185309105B8F44091780050915B
S11303307900FC01EE0FFF1FEE0FFF1FE859FE4F7F
S113034060E070E0408351836283738301969093ED
S11303502B0180932A0104C010922B0110922A01D0
S1130360FF91EF919F918F917F916F915F914F9149
S11303700F900FBE0F901F9018951F920F920FB6FB
S11303800F9211242F933F934F935F936F937F9317
S11303908F939F93AF93BF93EF93FF938DE386BDAA
S11303A080917C0190917D01019690937D018093D1
S11303B07C016091320170913301809134019091FC
S11303C035010E945D0220E030E040E85AE30E94DB
S11303D0C30220E030E44CE955E40E94C3020E94C9
S11303E02E0260932E0170932F018093300190931D
S11303F031019F938F937F936F9383E291E09F9357
S11304008F938EE791E09F938F930E9480038EE7F2
S113041091E00E9477008DB79EB708960FB6F894C6
S11304209EBF0FBE8DBF80917C0190917D01889706
S113043020F010927D0110927C01FF91EF91BF9109
S1130440AF919F918F917F916F915F914F913F9168
S11304502F910F900FBE0F901F9018950E94A2022B
S113046088F09F5798F0B92F9927B751B0F0E1F071
S1130470660F771F881F991F1AF0BA95C9F714C021
S1130480B13091F00E94BC02B1E008950C94BC021A
S1130490672F782F8827B85F39F0B93FCCF386955A
S11304A077956795B395D9F73EF4909580957095B7
S11304B061957F4F8F4F9F4F0895E89409C097FB34
S11304C03EF490958095709561957F4F8F4F9F4F27
S11304D09923A9F0F92F96E9BB279395F69587956B
S11304E077956795B795F111F8CFFAF4BB0F11F42E
S11304F060FF1BC06F5F7F4F8F4F9F4F16C08823D5
S113050011F096E911C0772321F09EE8872F762F0A
S113051005C0662371F096E8862F70E060E02AF04B
S11305209A95660F771F881FDAF7880F9695879537
S113053097F9089557FD9058440F551F59F05F3FA0
S113054071F04795880F97FB991F61F09F3F79F0F1
S113055087950895121613061406551FF2CF469573
S1130560F1DF08C0161617061806991FF1CF8695F5
S11305707105610508940895E894BB2766277727D9
S1130580CB0197F908950E94D6020C9447030E9468
S1130590390338F00E94400320F0952311F00C94A5
S11305A030030C94360311240C94BD020E949A0269
S11305B070F3959FC1F3950F50E0551F629FF001B2
S11305C0729FBB27F00DB11D639FAA27F00DB11DCB
S11305D0AA1F649F6627B00DA11D661F829F222754
S11305E0B00DA11D621F739FB00DA11D621F839FDB
S11305F0A00D611D221F749F3327A00D611D231FB1
S1130600849F600D211D822F762F6A2F11249F57FE
S113061050409AF0F1F088234AF0EE0FFF1FBB1F01
S1130620661F771F881F91505040A9F79E3F5105C0
S113063080F00C9430030C94BD025F3FE4F3983EC9
S1130640D4F3869577956795B795F795E7959F5F6A
S1130650C1F7FE2B880F911D9695879597F90895FC
S113066097F99F6780E870E060E008959FEF80EC61
S1130670089500240A941616170618060906089504
S113068000240A9412161306140605060895092E6A
S11306900394000C11F4882352F0BB0F40F4BF2BD9
S11306A011F460FF04C06F5F7F4F8F4F9F4F089519
S11306B097FB072E16F4009407D077FD09D00E940B
S11306C06C0307FC05D03EF4909581959F4F0895E7
S11306D0709561957F4F0895AA1BBB1B51E107C01C
S11306E0AA1FBB1FA617B70710F0A61BB70B881FBE
S11306F0991F5A95A9F780959095BC01CD0108954D
S1130700AEE0B0E0E6E8F3E00C9441060D891E8902
S113071086E08C831A8309838FEF9FE79E838D8302
S1130720AE01475E5F4F6F89788DCE0101960E94BE
S1130730A203EF81F885E00FF11F10822E96E4E00A
S11307400C945D06ABE0B0E0E8EAF3E00C94330609
S11307506C017B018A01FC0117821682838181FF6F
S1130760CCC1CE0101963C01F6019381F70193FDC2
S1130770859193FF81917F01882309F4BAC1853261
S113078039F493FD859193FF81917F01853229F49A
S1130790B60190E00E949905E7CF912C212C312CD1
S11307A0FFE1F315D8F08B3279F038F4803279F028
S11307B08332A1F4232D20611DC08D3261F080337A
S11307C069F4232D216016C0832D8260382EE32D19
S11307D0E4603E2E2AC0F32DF8601DC037FC2DC006
S11307E020ED280F2A3040F08E32B9F436FC81C156
S11307F0232D2064322E19C036FE06C08AE0989E4E
S1130800200D1124922E11C0EAE02E9E200D1124F9
S1130810222EF32DF0623F2E08C08C3621F4832D56
S11308208068382E02C0883641F4F70193FD859123
S113083093FF81917F018111B3CF982F9F7D9554B0
S1130840933028F40C5F1F4F9FE399830DC08336C8
S113085031F0833771F0833509F059C021C0F801B4
S1130860808189830E5F1F4F88248394912C5301C8
S113087013C02801F2E04F0E511CF801A080B18092
S113088036FE03C0692D70E002C06FEF7FEFC50133
S11308900E948E054C018201F32DFF773F2E16C076
S11308A0280122E0420E511CF801A080B18036FEDE
S11308B003C0692D70E002C06FEF7FEFC5010E9495
S11308C083054C01F32DF0683F2E820133FC1BC0DD
S11308D0822D90E088169906B0F4B60180E290E08B
S11308E00E9499052A94F4CFF50137FC859137FECF
S11308F081915F01B60190E00E94990521102A942C
S113090021E0821A91088114910471F7E8C08436B9
S113091011F0893641F5F80137FE07C06081718115
S1130920828193810C5F1F4F08C060817181072E03
S1130930000C880B990B0E5F1F4FF32DFF763F2E93
S113094097FF09C090958095709561957F4F8F4F63
S11309509F4FF0683F2E2AE030E0A3010E94D505A6
S1130960882E861845C0853731F4232D2F7EB22E6C
S11309702AE030E025C0932D997FB92E8F36C1F03F
S113098018F4883579F0B5C0803719F0883721F02C
S1130990B0C0E92FE061BE2EB4FE0DC0FB2DF460A3
S11309A0BF2E09C034FE0AC0292F2660B22E06C00D
S11309B028E030E005C020E130E002C020E132E070
S11309C0F801B7FE07C060817181828193810C5F59
S11309D01F4F06C06081718180E090E00E5F1F4F61
S11309E0A3010E94D505882E8618FB2DFF773F2E84
S11309F036FE0DC0232D2E7FA22E891458F434FE0A
S1130A000BC032FC09C0832D8E7EA82E05C0B82CE5
S1130A10A32C03C0B82C01C0B92CA4FE0FC0FE0146
S1130A20E80DF11D8081803321F49A2D997EA92E41
S1130A3009C0A2FE06C0B394B39404C08A2D86787C
S1130A4009F0B394A3FC11C0A0FE06C0B21488F44C
S1130A50280C922C9B180EC0B21460F4B60180E2EC
S1130A6090E00E949905B394F7CFB21418F42B18B0
S1130A7002C0982C212CA4FE10C0B60180E390E0A3
S1130A800E949905A2FE17C0A1FC03C088E790E06C
S1130A9002C088E590E0B6010CC08A2D867859F032
S1130AA0A1FE02C08BE201C080E2A7FC8DE2B60188
S1130AB090E00E949905891438F4B60180E390E02F
S1130AC00E9499059A94F7CF8A94F301E80DF11DD9
S1130AD08081B60190E00E9499058110F5CF222013
S1130AE009F442CEB60180E290E00E9499052A946E
S1130AF0F6CFF6018681978102C08FEF9FEF2B9688
S1130B00E2E10C944F06FC01059061507040011025
S1130B10D8F7809590958E0F9F1F0895FC01615022
S1130B20704001900110D8F7809590958E0F9F1F0B
S1130B3008950F931F93CF93DF93FB01238121FD2E
S1130B4003C08FEF9FEF2CC022FF16C04681578150
S1130B50248135814217530744F4A081B1819D015A
S1130B602F5F3F4F318320838C93268137812F5F02
S1130B703F4F3783268314C08B01EC01FB010084B3
S1130B80F185E02D0995892BE1F6D80116968D9112
S1130B909C911797019617969C938E931697CE0166
S1130BA0DF91CF911F910F910895FA01AA27283060
S1130BB051F1203181F1E8946F936E7F6E5F7F4F26
S1130BC08F4F9F4FAF4FB1E03ED0B4E03CD0670FA2
S1130BD0781F891F9A1FA11D680F791F8A1F911DF5
S1130BE0A11D6A0F711D811D911DA11D20D009F445
S1130BF068943F912AE0269F11243019305D319387
S1130C00DEF6CF010895462F4770405D4193B3E06F
S1130C100FD0C9F7F6CF462F4F70405D4A3318F016
S1130C20495D31FD4052419302D0A9F7EACFB4E0C7
S1130C30A6959795879577956795BA95C9F700977F
S1130C406105710508959B01AC010A2E0694579520
S1130C50479537952795BA95C9F7620F731F841F77
S1130C60951FA01D08952F923F924F925F926F920D
S1130C707F928F929F92AF92BF92CF92DF92EF9228
S1130C80FF920F931F93CF93DF93CDB7DEB7CA1BA9
S1130C90DB0B0FB6F894DEBF0FBECDBF09942A88D4
S1130CA0398848885F846E847D848C849B84AA847C
S1130CB0B984C884DF80EE80FD800C811B81AA8109
S1130CC0B981CE0FD11D0FB6F894DEBF0FBECDBFD4
S10B0CD0ED010895F894FFCF33
S1130CD84144432076616C7565203D20256C750080
S1130CE84144432076616C7565203D20256C752050
S10D0CF86D5600256C756D56000062
S9030000FC
